{
  "_format": "hh-sol-artifact-1",
  "contractName": "Distributor",
  "sourceName": "contracts/Distributor.sol",
  "abi": [
    {
      "anonymous": false,
      "inputs": [
        {
          "indexed": true,
          "internalType": "address",
          "name": "sender",
          "type": "address"
        },
        {
          "indexed": true,
          "internalType": "string",
          "name": "id",
          "type": "string"
        }
      ],
      "name": "ethDistributed",
      "type": "event"
    },
    {
      "anonymous": false,
      "inputs": [
        {
          "indexed": true,
          "internalType": "address",
          "name": "sender",
          "type": "address"
        },
        {
          "indexed": true,
          "internalType": "string",
          "name": "id",
          "type": "string"
        }
      ],
      "name": "tokenDistributed",
      "type": "event"
    },
    {
      "inputs": [
        {
          "internalType": "address[]",
          "name": "recipients",
          "type": "address[]"
        },
        {
          "internalType": "uint256[]",
          "name": "values",
          "type": "uint256[]"
        },
        {
          "internalType": "string",
          "name": "id",
          "type": "string"
        }
      ],
      "name": "distributeEther",
      "outputs": [],
      "stateMutability": "payable",
      "type": "function"
    },
    {
      "inputs": [
        {
          "internalType": "contract ERC20[]",
          "name": "tokens",
          "type": "address[]"
        },
        {
          "internalType": "address[]",
          "name": "recipients",
          "type": "address[]"
        },
        {
          "internalType": "uint256[]",
          "name": "values",
          "type": "uint256[]"
        },
        {
          "internalType": "string",
          "name": "id",
          "type": "string"
        }
      ],
      "name": "distributeToken",
      "outputs": [],
      "stateMutability": "nonpayable",
      "type": "function"
    }
  ],
  "bytecode": "0x608060405234801561001057600080fd5b50610aff806100206000396000f3fe6080604052600436106100295760003560e01c80631e28e1181461002e578063c340dc2714610043575b600080fd5b61004161003c36600461081f565b610063565b005b34801561004f57600080fd5b5061004161005e3660046108a3565b61031a565b81518351146100b95760405162461bcd60e51b815260206004820152601a60248201527f444953545249425554455f4c454e4754485f4d49534d4154434800000000000060448201526064015b60405180910390fd5b6000805b84518110156102005760006001600160a01b03168582815181106100f157634e487b7160e01b600052603260045260246000fd5b60200260200101516001600160a01b031614156101425760405162461bcd60e51b815260206004820152600f60248201526e494e56414c49445f4144445245535360881b60448201526064016100b0565b600084828151811061016457634e487b7160e01b600052603260045260246000fd5b6020026020010151116101b95760405162461bcd60e51b815260206004820152601b60248201527f494e56414c49445f5a45524f5f56414c55455f5452414e53464552000000000060448201526064016100b0565b8381815181106101d957634e487b7160e01b600052603260045260246000fd5b6020026020010151826101ec9190610a3b565b9150806101f881610a6a565b9150506100bd565b50803410156102425760405162461bcd60e51b815260206004820152600e60248201526d09c9ea8be8a9c9eaa8e90be8aa8960931b60448201526064016100b0565b60005b84518110156102b8576102a685828151811061027157634e487b7160e01b600052603260045260246000fd5b602002602001015185838151811061029957634e487b7160e01b600052603260045260246000fd5b60200260200101516105ae565b806102b081610a6a565b915050610245565b50803411156102d4576102d4336102cf8334610a53565b6105ae565b816040516102e291906109ad565b6040519081900381209033907ff527438fb979e0ba62a56f4755c3a82812db2fa9d396a91c3b3b475da83f358690600090a350505050565b815183511461036b5760405162461bcd60e51b815260206004820152601a60248201527f444953545249425554455f4c454e4754485f4d49534d4154434800000000000060448201526064016100b0565b6000805b84518110156104b25760006001600160a01b03168582815181106103a357634e487b7160e01b600052603260045260246000fd5b60200260200101516001600160a01b031614156103f45760405162461bcd60e51b815260206004820152600f60248201526e494e56414c49445f4144445245535360881b60448201526064016100b0565b600084828151811061041657634e487b7160e01b600052603260045260246000fd5b60200260200101511161046b5760405162461bcd60e51b815260206004820152601b60248201527f494e56414c49445f5a45524f5f56414c55455f5452414e53464552000000000060448201526064016100b0565b83818151811061048b57634e487b7160e01b600052603260045260246000fd5b60200260200101518261049e9190610a3b565b9150806104aa81610a6a565b91505061036f565b5060005b845181101561056657610554338683815181106104e357634e487b7160e01b600052603260045260246000fd5b602002602001015186848151811061050b57634e487b7160e01b600052603260045260246000fd5b602002602001015189858151811061053357634e487b7160e01b600052603260045260246000fd5b60200260200101516001600160a01b0316610604909392919063ffffffff16565b8061055e81610a6a565b9150506104b6565b508160405161057591906109ad565b6040519081900381209033907f0b534d9b481210ce94acfb8c6903d60cc17c0dfaf9911213c348d8b3db5d7a5f90600090a35050505050565b600080600080600085875af19050806105ff5760405162461bcd60e51b815260206004820152601360248201527211551217d514905394d1915497d19052531151606a1b60448201526064016100b0565b505050565b60006040516323b872dd60e01b81526001600160a01b03851660048201526001600160a01b038416602482015282604482015260008060648360008a5af191505061064e81610698565b6106915760405162461bcd60e51b81526020600482015260146024820152731514905394d1915497d19493d357d1905253115160621b60448201526064016100b0565b5050505050565b60003d826106aa57806000803e806000fd5b80602081146106c25780156106d357600092506106d8565b816000803e600051151592506106d8565b600192505b5050919050565b600082601f8301126106ef578081fd5b813560206107046106ff83610a17565b6109e6565b80838252828201915082860187848660051b8901011115610723578586fd5b855b8581101561074a57813561073881610ab1565b84529284019290840190600101610725565b5090979650505050505050565b600082601f830112610767578081fd5b813560206107776106ff83610a17565b80838252828201915082860187848660051b8901011115610796578586fd5b855b8581101561074a57813584529284019290840190600101610798565b600082601f8301126107c4578081fd5b813567ffffffffffffffff8111156107de576107de610a9b565b6107f1601f8201601f19166020016109e6565b818152846020838601011115610805578283fd5b816020850160208301379081016020019190915292915050565b600080600060608486031215610833578283fd5b833567ffffffffffffffff8082111561084a578485fd5b610856878388016106df565b9450602086013591508082111561086b578384fd5b61087787838801610757565b9350604086013591508082111561088c578283fd5b50610899868287016107b4565b9150509250925092565b600080600080608085870312156108b8578081fd5b843567ffffffffffffffff808211156108cf578283fd5b818701915087601f8301126108e2578283fd5b813560206108f26106ff83610a17565b8083825282820191508286018c848660051b8901011115610911578788fd5b8796505b8487101561093c57803561092881610ab1565b835260019690960195918301918301610915565b5098505088013592505080821115610952578283fd5b61095e888389016106df565b94506040870135915080821115610973578283fd5b61097f88838901610757565b93506060870135915080821115610994578283fd5b506109a1878288016107b4565b91505092959194509250565b60008251815b818110156109cd57602081860181015185830152016109b3565b818111156109db5782828501525b509190910192915050565b604051601f8201601f1916810167ffffffffffffffff81118282101715610a0f57610a0f610a9b565b604052919050565b600067ffffffffffffffff821115610a3157610a31610a9b565b5060051b60200190565b60008219821115610a4e57610a4e610a85565b500190565b600082821015610a6557610a65610a85565b500390565b6000600019821415610a7e57610a7e610a85565b5060010190565b634e487b7160e01b600052601160045260246000fd5b634e487b7160e01b600052604160045260246000fd5b6001600160a01b0381168114610ac657600080fd5b5056fea26469706673582212201218b0a3ba80f0a1d901cf121260e4dd3322912662e222bfbf50743dc99e0f8864736f6c63430008040033",
  "linkReferences": {},
  "deployedLinkReferences": {}
}