{
  "_format": "hh-sol-artifact-1",
  "contractName": "Distributor",
  "sourceName": "contracts/Distributor.sol",
  "abi": [
    {
      "anonymous": false,
      "inputs": [
        {
          "indexed": true,
          "internalType": "address",
          "name": "sender",
          "type": "address"
        },
        {
          "indexed": true,
          "internalType": "string",
          "name": "id",
          "type": "string"
        }
      ],
      "name": "ethDistributed",
      "type": "event"
    },
    {
      "anonymous": false,
      "inputs": [
        {
          "indexed": true,
          "internalType": "address",
          "name": "sender",
          "type": "address"
        },
        {
          "indexed": true,
          "internalType": "address",
          "name": "token",
          "type": "address"
        },
        {
          "indexed": true,
          "internalType": "string",
          "name": "id",
          "type": "string"
        }
      ],
      "name": "tokenDistributed",
      "type": "event"
    },
    {
      "anonymous": false,
      "inputs": [
        {
          "indexed": true,
          "internalType": "address",
          "name": "sender",
          "type": "address"
        },
        {
          "indexed": false,
          "internalType": "contract ERC20[]",
          "name": "tokens",
          "type": "address[]"
        }
      ],
      "name": "tokensApproved",
      "type": "event"
    },
    {
      "anonymous": false,
      "inputs": [
        {
          "indexed": true,
          "internalType": "address",
          "name": "sender",
          "type": "address"
        },
        {
          "indexed": true,
          "internalType": "string",
          "name": "id",
          "type": "string"
        }
      ],
      "name": "tokensDistributed",
      "type": "event"
    },
    {
      "inputs": [
        {
          "internalType": "contract ERC20[]",
          "name": "tokens",
          "type": "address[]"
        }
      ],
      "name": "approveTokens",
      "outputs": [],
      "stateMutability": "nonpayable",
      "type": "function"
    },
    {
      "inputs": [
        {
          "internalType": "address[]",
          "name": "recipients",
          "type": "address[]"
        },
        {
          "internalType": "uint256[]",
          "name": "values",
          "type": "uint256[]"
        },
        {
          "internalType": "string",
          "name": "id",
          "type": "string"
        }
      ],
      "name": "distributeEther",
      "outputs": [],
      "stateMutability": "payable",
      "type": "function"
    },
    {
      "inputs": [
        {
          "internalType": "contract ERC20",
          "name": "token",
          "type": "address"
        },
        {
          "internalType": "address[]",
          "name": "recipients",
          "type": "address[]"
        },
        {
          "internalType": "uint256[]",
          "name": "values",
          "type": "uint256[]"
        },
        {
          "internalType": "string",
          "name": "id",
          "type": "string"
        }
      ],
      "name": "distributeToken",
      "outputs": [],
      "stateMutability": "nonpayable",
      "type": "function"
    },
    {
      "inputs": [
        {
          "internalType": "contract ERC20[]",
          "name": "tokens",
          "type": "address[]"
        },
        {
          "internalType": "address[]",
          "name": "recipients",
          "type": "address[]"
        },
        {
          "internalType": "uint256[]",
          "name": "values",
          "type": "uint256[]"
        },
        {
          "internalType": "string",
          "name": "id",
          "type": "string"
        }
      ],
      "name": "distributeTokens",
      "outputs": [],
      "stateMutability": "nonpayable",
      "type": "function"
    },
    {
      "inputs": [
        {
          "internalType": "contract ERC20[]",
          "name": "tokens",
          "type": "address[]"
        },
        {
          "internalType": "uint256[]",
          "name": "values",
          "type": "uint256[]"
        }
      ],
      "name": "pendingApprovals",
      "outputs": [
        {
          "internalType": "bool[]",
          "name": "",
          "type": "bool[]"
        }
      ],
      "stateMutability": "view",
      "type": "function"
    }
  ],
  "bytecode": "0x608060405234801561001057600080fd5b506111f4806100206000396000f3fe60806040526004361061004a5760003560e01c8063104d4ff61461004f5780631e28e11814610071578063704f839d146100845780638f3ce647146100a4578063ac43070b146100da575b600080fd5b34801561005b57600080fd5b5061006f61006a366004610ddf565b6100fa565b005b61006f61007f366004610d20565b610336565b34801561009057600080fd5b5061006f61009f366004610f0f565b610566565b3480156100b057600080fd5b506100c46100bf366004610e87565b61075c565b6040516100d19190610fbd565b60405180910390f35b3480156100e657600080fd5b5061006f6100f5366004610da4565b610935565b81518351146101245760405162461bcd60e51b815260040161011b906110a4565b60405180910390fd5b83518251146101455760405162461bcd60e51b815260040161011b906110a4565b6000805b845181101561023a5760006001600160a01b031685828151811061017d57634e487b7160e01b600052603260045260246000fd5b60200260200101516001600160a01b031614156101ac5760405162461bcd60e51b815260040161011b90611044565b60008482815181106101ce57634e487b7160e01b600052603260045260246000fd5b6020026020010151116101f35760405162461bcd60e51b815260040161011b9061106d565b83818151811061021357634e487b7160e01b600052603260045260246000fd5b6020026020010151826102269190611130565b9150806102328161115f565b915050610149565b5060005b84518110156102ee576102dc3386838151811061026b57634e487b7160e01b600052603260045260246000fd5b602002602001015186848151811061029357634e487b7160e01b600052603260045260246000fd5b60200260200101518985815181106102bb57634e487b7160e01b600052603260045260246000fd5b60200260200101516001600160a01b0316610a49909392919063ffffffff16565b806102e68161115f565b91505061023e565b50816040516102fd9190610f84565b6040519081900381209033907fa3bd5ae9042f05209a592c344252431a42ad10bebba00f92605cdd6b636066b590600090a35050505050565b81518351146103575760405162461bcd60e51b815260040161011b906110a4565b6000805b845181101561044c5760006001600160a01b031685828151811061038f57634e487b7160e01b600052603260045260246000fd5b60200260200101516001600160a01b031614156103be5760405162461bcd60e51b815260040161011b90611044565b60008482815181106103e057634e487b7160e01b600052603260045260246000fd5b6020026020010151116104055760405162461bcd60e51b815260040161011b9061106d565b83818151811061042557634e487b7160e01b600052603260045260246000fd5b6020026020010151826104389190611130565b9150806104448161115f565b91505061035b565b508034101561048e5760405162461bcd60e51b815260206004820152600e60248201526d09c9ea8be8a9c9eaa8e90be8aa8960931b604482015260640161011b565b60005b8451811015610504576104f28582815181106104bd57634e487b7160e01b600052603260045260246000fd5b60200260200101518583815181106104e557634e487b7160e01b600052603260045260246000fd5b6020026020010151610add565b806104fc8161115f565b915050610491565b5080341115610520576105203361051b8334611148565b610add565b8160405161052e9190610f84565b6040519081900381209033907ff527438fb979e0ba62a56f4755c3a82812db2fa9d396a91c3b3b475da83f358690600090a350505050565b81518351146105875760405162461bcd60e51b815260040161011b906110a4565b6000805b845181101561067c5760006001600160a01b03168582815181106105bf57634e487b7160e01b600052603260045260246000fd5b60200260200101516001600160a01b031614156105ee5760405162461bcd60e51b815260040161011b90611044565b600084828151811061061057634e487b7160e01b600052603260045260246000fd5b6020026020010151116106355760405162461bcd60e51b815260040161011b9061106d565b83818151811061065557634e487b7160e01b600052603260045260246000fd5b6020026020010151826106689190611130565b9150806106748161115f565b91505061058b565b5060005b8451811015610709576106f7338683815181106106ad57634e487b7160e01b600052603260045260246000fd5b60200260200101518684815181106106d557634e487b7160e01b600052603260045260246000fd5b6020026020010151896001600160a01b0316610a49909392919063ffffffff16565b806107018161115f565b915050610680565b50816040516107189190610f84565b604051908190038120906001600160a01b0387169033907f3e6791fcf03b705d16dfa02f4e8e3e74a92b6c937ee2a56b719a7696948ba4ce90600090a45050505050565b606081518351146107af5760405162461bcd60e51b815260206004820152601760248201527f415050524f56455f4c454e4754485f4d49534d41544348000000000000000000604482015260640161011b565b6000835167ffffffffffffffff8111156107d957634e487b7160e01b600052604160045260246000fd5b604051908082528060200260200182016040528015610802578160200160208202803683370190505b50905060005b845181101561092d5783818151811061083157634e487b7160e01b600052603260045260246000fd5b602002602001015185828151811061085957634e487b7160e01b600052603260045260246000fd5b6020908102919091010151604051636eb1769f60e11b81523360048201523060248201526001600160a01b039091169063dd62ed3e9060440160206040518083038186803b1580156108aa57600080fd5b505afa1580156108be573d6000803e3d6000fd5b505050506040513d601f19601f820116820180604052508101906108e29190610f6c565b101561091b57600082828151811061090a57634e487b7160e01b600052603260045260246000fd5b911515602092830291909101909101525b806109258161115f565b915050610808565b509392505050565b60001960005b8251811015610a035782818151811061096457634e487b7160e01b600052603260045260246000fd5b602090810291909101015160405163095ea7b360e01b8152306004820152602481018490526001600160a01b039091169063095ea7b390604401602060405180830381600087803b1580156109b857600080fd5b505af11580156109cc573d6000803e3d6000fd5b505050506040513d601f19601f820116820180604052508101906109f09190610ee8565b50806109fb8161115f565b91505061093b565b50336001600160a01b03167f50ed0fdc9736df8cbe41d43dc5547fc3e9c92000d29c924bef2f4d4abcfd43a983604051610a3d9190611003565b60405180910390a25050565b60006040516323b872dd60e01b81526001600160a01b03851660048201526001600160a01b038416602482015282604482015260008060648360008a5af1915050610a9381610b33565b610ad65760405162461bcd60e51b81526020600482015260146024820152731514905394d1915497d19493d357d1905253115160621b604482015260640161011b565b5050505050565b600080600080600085875af1905080610b2e5760405162461bcd60e51b815260206004820152601360248201527211551217d514905394d1915497d19052531151606a1b604482015260640161011b565b505050565b60003d82610b4557806000803e806000fd5b8060208114610b5d578015610b6e5760009250610b73565b816000803e60005115159250610b73565b600192505b5050919050565b600082601f830112610b8a578081fd5b81356020610b9f610b9a8361110c565b6110db565b80838252828201915082860187848660051b8901011115610bbe578586fd5b855b85811015610be5578135610bd3816111a6565b84529284019290840190600101610bc0565b5090979650505050505050565b600082601f830112610c02578081fd5b81356020610c12610b9a8361110c565b80838252828201915082860187848660051b8901011115610c31578586fd5b855b85811015610be5578135610c46816111a6565b84529284019290840190600101610c33565b600082601f830112610c68578081fd5b81356020610c78610b9a8361110c565b80838252828201915082860187848660051b8901011115610c97578586fd5b855b85811015610be557813584529284019290840190600101610c99565b600082601f830112610cc5578081fd5b813567ffffffffffffffff811115610cdf57610cdf611190565b610cf2601f8201601f19166020016110db565b818152846020838601011115610d06578283fd5b816020850160208301379081016020019190915292915050565b600080600060608486031215610d34578283fd5b833567ffffffffffffffff80821115610d4b578485fd5b610d5787838801610b7a565b94506020860135915080821115610d6c578384fd5b610d7887838801610c58565b93506040860135915080821115610d8d578283fd5b50610d9a86828701610cb5565b9150509250925092565b600060208284031215610db5578081fd5b813567ffffffffffffffff811115610dcb578182fd5b610dd784828501610bf2565b949350505050565b60008060008060808587031215610df4578081fd5b843567ffffffffffffffff80821115610e0b578283fd5b610e1788838901610bf2565b95506020870135915080821115610e2c578283fd5b610e3888838901610b7a565b94506040870135915080821115610e4d578283fd5b610e5988838901610c58565b93506060870135915080821115610e6e578283fd5b50610e7b87828801610cb5565b91505092959194509250565b60008060408385031215610e99578182fd5b823567ffffffffffffffff80821115610eb0578384fd5b610ebc86838701610bf2565b93506020850135915080821115610ed1578283fd5b50610ede85828601610c58565b9150509250929050565b600060208284031215610ef9578081fd5b81518015158114610f08578182fd5b9392505050565b60008060008060808587031215610f24578384fd5b8435610f2f816111a6565b9350602085013567ffffffffffffffff80821115610f4b578485fd5b610f5788838901610b7a565b94506040870135915080821115610e4d578384fd5b600060208284031215610f7d578081fd5b5051919050565b60008251815b81811015610fa45760208186018101518583015201610f8a565b81811115610fb25782828501525b509190910192915050565b6020808252825182820181905260009190848201906040850190845b81811015610ff7578351151583529284019291840191600101610fd9565b50909695505050505050565b6020808252825182820181905260009190848201906040850190845b81811015610ff75783516001600160a01b03168352928401929184019160010161101f565b6020808252600f908201526e494e56414c49445f4144445245535360881b604082015260600190565b6020808252601b908201527f494e56414c49445f5a45524f5f56414c55455f5452414e534645520000000000604082015260600190565b6020808252601a908201527f444953545249425554455f4c454e4754485f4d49534d41544348000000000000604082015260600190565b604051601f8201601f1916810167ffffffffffffffff8111828210171561110457611104611190565b604052919050565b600067ffffffffffffffff82111561112657611126611190565b5060051b60200190565b600082198211156111435761114361117a565b500190565b60008282101561115a5761115a61117a565b500390565b60006000198214156111735761117361117a565b5060010190565b634e487b7160e01b600052601160045260246000fd5b634e487b7160e01b600052604160045260246000fd5b6001600160a01b03811681146111bb57600080fd5b5056fea264697066735822122008e181cee8a58bb4cd5c6cb46816925ade67283c472a22ff7e2f94be9ab4c77f64736f6c63430008040033",
  "linkReferences": {},
  "deployedLinkReferences": {}
}