{
  "_format": "hh-sol-artifact-1",
  "contractName": "Distributor",
  "sourceName": "contracts/Distributor.sol",
  "abi": [
    {
      "anonymous": false,
      "inputs": [
        {
          "indexed": true,
          "internalType": "address",
          "name": "sender",
          "type": "address"
        },
        {
          "indexed": true,
          "internalType": "string",
          "name": "id",
          "type": "string"
        }
      ],
      "name": "ethDistributed",
      "type": "event"
    },
    {
      "anonymous": false,
      "inputs": [
        {
          "indexed": true,
          "internalType": "address",
          "name": "sender",
          "type": "address"
        },
        {
          "indexed": true,
          "internalType": "address",
          "name": "token",
          "type": "address"
        },
        {
          "indexed": true,
          "internalType": "string",
          "name": "id",
          "type": "string"
        }
      ],
      "name": "tokenDistributed",
      "type": "event"
    },
    {
      "anonymous": false,
      "inputs": [
        {
          "indexed": true,
          "internalType": "address",
          "name": "sender",
          "type": "address"
        },
        {
          "indexed": true,
          "internalType": "string",
          "name": "id",
          "type": "string"
        }
      ],
      "name": "tokensDistributed",
      "type": "event"
    },
    {
      "inputs": [
        {
          "internalType": "address[]",
          "name": "recipients",
          "type": "address[]"
        },
        {
          "internalType": "uint256[]",
          "name": "values",
          "type": "uint256[]"
        },
        {
          "internalType": "string",
          "name": "id",
          "type": "string"
        }
      ],
      "name": "distributeEther",
      "outputs": [],
      "stateMutability": "payable",
      "type": "function"
    },
    {
      "inputs": [
        {
          "internalType": "contract ERC20",
          "name": "token",
          "type": "address"
        },
        {
          "internalType": "address[]",
          "name": "recipients",
          "type": "address[]"
        },
        {
          "internalType": "uint256[]",
          "name": "values",
          "type": "uint256[]"
        },
        {
          "internalType": "string",
          "name": "id",
          "type": "string"
        }
      ],
      "name": "distributeToken",
      "outputs": [],
      "stateMutability": "nonpayable",
      "type": "function"
    },
    {
      "inputs": [
        {
          "internalType": "contract ERC20[]",
          "name": "tokens",
          "type": "address[]"
        },
        {
          "internalType": "address[]",
          "name": "recipients",
          "type": "address[]"
        },
        {
          "internalType": "uint256[]",
          "name": "values",
          "type": "uint256[]"
        },
        {
          "internalType": "string",
          "name": "id",
          "type": "string"
        }
      ],
      "name": "distributeTokens",
      "outputs": [],
      "stateMutability": "nonpayable",
      "type": "function"
    }
  ],
  "bytecode": "0x608060405234801561001057600080fd5b50610d35806100206000396000f3fe6080604052600436106100345760003560e01c8063104d4ff6146100395780631e28e1181461005b578063704f839d1461006e575b600080fd5b34801561004557600080fd5b506100596100543660046109e5565b61008e565b005b610059610069366004610961565b6102ca565b34801561007a57600080fd5b50610059610089366004610aef565b6104fa565b81518351146100b85760405162461bcd60e51b81526004016100af90610be5565b60405180910390fd5b83518251146100d95760405162461bcd60e51b81526004016100af90610be5565b6000805b84518110156101ce5760006001600160a01b031685828151811061011157634e487b7160e01b600052603260045260246000fd5b60200260200101516001600160a01b031614156101405760405162461bcd60e51b81526004016100af90610b85565b600084828151811061016257634e487b7160e01b600052603260045260246000fd5b6020026020010151116101875760405162461bcd60e51b81526004016100af90610bae565b8381815181106101a757634e487b7160e01b600052603260045260246000fd5b6020026020010151826101ba9190610c71565b9150806101c681610ca0565b9150506100dd565b5060005b845181101561028257610270338683815181106101ff57634e487b7160e01b600052603260045260246000fd5b602002602001015186848151811061022757634e487b7160e01b600052603260045260246000fd5b602002602001015189858151811061024f57634e487b7160e01b600052603260045260246000fd5b60200260200101516001600160a01b03166106f0909392919063ffffffff16565b8061027a81610ca0565b9150506101d2565b50816040516102919190610b4c565b6040519081900381209033907fa3bd5ae9042f05209a592c344252431a42ad10bebba00f92605cdd6b636066b590600090a35050505050565b81518351146102eb5760405162461bcd60e51b81526004016100af90610be5565b6000805b84518110156103e05760006001600160a01b031685828151811061032357634e487b7160e01b600052603260045260246000fd5b60200260200101516001600160a01b031614156103525760405162461bcd60e51b81526004016100af90610b85565b600084828151811061037457634e487b7160e01b600052603260045260246000fd5b6020026020010151116103995760405162461bcd60e51b81526004016100af90610bae565b8381815181106103b957634e487b7160e01b600052603260045260246000fd5b6020026020010151826103cc9190610c71565b9150806103d881610ca0565b9150506102ef565b50803410156104225760405162461bcd60e51b815260206004820152600e60248201526d09c9ea8be8a9c9eaa8e90be8aa8960931b60448201526064016100af565b60005b84518110156104985761048685828151811061045157634e487b7160e01b600052603260045260246000fd5b602002602001015185838151811061047957634e487b7160e01b600052603260045260246000fd5b6020026020010151610784565b8061049081610ca0565b915050610425565b50803411156104b4576104b4336104af8334610c89565b610784565b816040516104c29190610b4c565b6040519081900381209033907ff527438fb979e0ba62a56f4755c3a82812db2fa9d396a91c3b3b475da83f358690600090a350505050565b815183511461051b5760405162461bcd60e51b81526004016100af90610be5565b6000805b84518110156106105760006001600160a01b031685828151811061055357634e487b7160e01b600052603260045260246000fd5b60200260200101516001600160a01b031614156105825760405162461bcd60e51b81526004016100af90610b85565b60008482815181106105a457634e487b7160e01b600052603260045260246000fd5b6020026020010151116105c95760405162461bcd60e51b81526004016100af90610bae565b8381815181106105e957634e487b7160e01b600052603260045260246000fd5b6020026020010151826105fc9190610c71565b91508061060881610ca0565b91505061051f565b5060005b845181101561069d5761068b3386838151811061064157634e487b7160e01b600052603260045260246000fd5b602002602001015186848151811061066957634e487b7160e01b600052603260045260246000fd5b6020026020010151896001600160a01b03166106f0909392919063ffffffff16565b8061069581610ca0565b915050610614565b50816040516106ac9190610b4c565b604051908190038120906001600160a01b0387169033907f3e6791fcf03b705d16dfa02f4e8e3e74a92b6c937ee2a56b719a7696948ba4ce90600090a45050505050565b60006040516323b872dd60e01b81526001600160a01b03851660048201526001600160a01b038416602482015282604482015260008060648360008a5af191505061073a816107da565b61077d5760405162461bcd60e51b81526020600482015260146024820152731514905394d1915497d19493d357d1905253115160621b60448201526064016100af565b5050505050565b600080600080600085875af19050806107d55760405162461bcd60e51b815260206004820152601360248201527211551217d514905394d1915497d19052531151606a1b60448201526064016100af565b505050565b60003d826107ec57806000803e806000fd5b8060208114610804578015610815576000925061081a565b816000803e6000511515925061081a565b600192505b5050919050565b600082601f830112610831578081fd5b8135602061084661084183610c4d565b610c1c565b80838252828201915082860187848660051b8901011115610865578586fd5b855b8581101561088c57813561087a81610ce7565b84529284019290840190600101610867565b5090979650505050505050565b600082601f8301126108a9578081fd5b813560206108b961084183610c4d565b80838252828201915082860187848660051b89010111156108d8578586fd5b855b8581101561088c578135845292840192908401906001016108da565b600082601f830112610906578081fd5b813567ffffffffffffffff81111561092057610920610cd1565b610933601f8201601f1916602001610c1c565b818152846020838601011115610947578283fd5b816020850160208301379081016020019190915292915050565b600080600060608486031215610975578283fd5b833567ffffffffffffffff8082111561098c578485fd5b61099887838801610821565b945060208601359150808211156109ad578384fd5b6109b987838801610899565b935060408601359150808211156109ce578283fd5b506109db868287016108f6565b9150509250925092565b600080600080608085870312156109fa578081fd5b843567ffffffffffffffff80821115610a11578283fd5b818701915087601f830112610a24578283fd5b81356020610a3461084183610c4d565b8083825282820191508286018c848660051b8901011115610a53578788fd5b8796505b84871015610a7e578035610a6a81610ce7565b835260019690960195918301918301610a57565b5098505088013592505080821115610a94578283fd5b610aa088838901610821565b94506040870135915080821115610ab5578283fd5b610ac188838901610899565b93506060870135915080821115610ad6578283fd5b50610ae3878288016108f6565b91505092959194509250565b60008060008060808587031215610b04578384fd5b8435610b0f81610ce7565b9350602085013567ffffffffffffffff80821115610b2b578485fd5b610b3788838901610821565b94506040870135915080821115610ab5578384fd5b60008251815b81811015610b6c5760208186018101518583015201610b52565b81811115610b7a5782828501525b509190910192915050565b6020808252600f908201526e494e56414c49445f4144445245535360881b604082015260600190565b6020808252601b908201527f494e56414c49445f5a45524f5f56414c55455f5452414e534645520000000000604082015260600190565b6020808252601a908201527f444953545249425554455f4c454e4754485f4d49534d41544348000000000000604082015260600190565b604051601f8201601f1916810167ffffffffffffffff81118282101715610c4557610c45610cd1565b604052919050565b600067ffffffffffffffff821115610c6757610c67610cd1565b5060051b60200190565b60008219821115610c8457610c84610cbb565b500190565b600082821015610c9b57610c9b610cbb565b500390565b6000600019821415610cb457610cb4610cbb565b5060010190565b634e487b7160e01b600052601160045260246000fd5b634e487b7160e01b600052604160045260246000fd5b6001600160a01b0381168114610cfc57600080fd5b5056fea2646970667358221220c7d6f9138d68ea751ee5251aed03f7a1c8d1ceae4e52e1ff1c9b2c0a469249aa64736f6c63430008040033",
  "linkReferences": {},
  "deployedLinkReferences": {}
}