{
  "_format": "hh-sol-artifact-1",
  "contractName": "ClaimModule",
  "sourceName": "contracts/core/modules/ClaimModule.sol",
  "abi": [
    {
      "inputs": [],
      "name": "AddressNotWhitelisted",
      "type": "error"
    },
    {
      "inputs": [
        {
          "internalType": "uint256",
          "name": "bountyId",
          "type": "uint256"
        },
        {
          "internalType": "bytes",
          "name": "data",
          "type": "bytes"
        }
      ],
      "name": "init",
      "outputs": [
        {
          "internalType": "bytes",
          "name": "",
          "type": "bytes"
        }
      ],
      "stateMutability": "nonpayable",
      "type": "function"
    },
    {
      "inputs": [
        {
          "internalType": "uint256",
          "name": "bountyId",
          "type": "uint256"
        },
        {
          "internalType": "address",
          "name": "person",
          "type": "address"
        }
      ],
      "name": "isWhitelistedAddress",
      "outputs": [
        {
          "internalType": "bool",
          "name": "",
          "type": "bool"
        }
      ],
      "stateMutability": "view",
      "type": "function"
    },
    {
      "inputs": [
        {
          "internalType": "uint256",
          "name": "bountyId",
          "type": "uint256"
        },
        {
          "internalType": "address",
          "name": "claimee",
          "type": "address"
        },
        {
          "internalType": "bytes",
          "name": "data",
          "type": "bytes"
        }
      ],
      "name": "processClaim",
      "outputs": [],
      "stateMutability": "nonpayable",
      "type": "function"
    },
    {
      "inputs": [
        {
          "internalType": "uint256",
          "name": "bountyId",
          "type": "uint256"
        },
        {
          "internalType": "bytes",
          "name": "data",
          "type": "bytes"
        }
      ],
      "name": "processSubmit",
      "outputs": [],
      "stateMutability": "nonpayable",
      "type": "function"
    }
  ],
  "bytecode": "0x608060405234801561001057600080fd5b506105e7806100206000396000f3fe608060405234801561001057600080fd5b506004361061004c5760003560e01c8063581c4b66146100515780637b601386146100815780639f83137b1461009d578063af3b455b146100cd575b600080fd5b61006b6004803603810190610066919061032d565b6100e9565b6040516100789190610475565b60405180910390f35b61009b600480360381019061009691906103d5565b610150565b005b6100b760048036038101906100b291906103d5565b610155565b6040516100c49190610490565b60405180910390f35b6100e760048036038101906100e29190610369565b6101da565b005b600080600084815260200190815260200160002060008373ffffffffffffffffffffffffffffffffffffffff1673ffffffffffffffffffffffffffffffffffffffff16815260200190815260200160002060009054906101000a900460ff16905092915050565b505050565b6060600083838101906101689190610304565b9050600160008087815260200190815260200160002060008373ffffffffffffffffffffffffffffffffffffffff1673ffffffffffffffffffffffffffffffffffffffff16815260200190815260200160002060006101000a81548160ff021916908315150217905550509392505050565b6000151560008086815260200190815260200160002060008573ffffffffffffffffffffffffffffffffffffffff1673ffffffffffffffffffffffffffffffffffffffff16815260200190815260200160002060009054906101000a900460ff1615151415610275576040517fad7acb4700000000000000000000000000000000000000000000000000000000815260040160405180910390fd5b50505050565b60008135905061028a8161056c565b92915050565b60008135905061029f81610583565b92915050565b60008083601f8401126102b757600080fd5b8235905067ffffffffffffffff8111156102d057600080fd5b6020830191508360018202830111156102e857600080fd5b9250929050565b6000813590506102fe8161059a565b92915050565b60006020828403121561031657600080fd5b600061032484828501610290565b91505092915050565b6000806040838503121561034057600080fd5b600061034e858286016102ef565b925050602061035f8582860161027b565b9150509250929050565b6000806000806060858703121561037f57600080fd5b600061038d878288016102ef565b945050602061039e8782880161027b565b935050604085013567ffffffffffffffff8111156103bb57600080fd5b6103c7878288016102a5565b925092505092959194509250565b6000806000604084860312156103ea57600080fd5b60006103f8868287016102ef565b935050602084013567ffffffffffffffff81111561041557600080fd5b610421868287016102a5565b92509250509250925092565b610436816104f2565b82525050565b6000610447826104b2565b61045181856104bd565b9350610461818560208601610528565b61046a8161055b565b840191505092915050565b600060208201905061048a600083018461042d565b92915050565b600060208201905081810360008301526104aa818461043c565b905092915050565b600081519050919050565b600082825260208201905092915050565b60006104d9826104fe565b9050919050565b60006104eb826104fe565b9050919050565b60008115159050919050565b600073ffffffffffffffffffffffffffffffffffffffff82169050919050565b6000819050919050565b60005b8381101561054657808201518184015260208101905061052b565b83811115610555576000848401525b50505050565b6000601f19601f8301169050919050565b610575816104ce565b811461058057600080fd5b50565b61058c816104e0565b811461059757600080fd5b50565b6105a38161051e565b81146105ae57600080fd5b5056fea264697066735822122035d576f0ea59ce814607e33d13c4e074b50d336185657303bf78a23c41d99cc664736f6c63430008040033",
  "linkReferences": {},
  "deployedLinkReferences": {}
}