{
  "_format": "hh-sol-artifact-1",
  "contractName": "CredsHub",
  "sourceName": "contracts/core/CredsHub.sol",
  "abi": [
    {
      "inputs": [],
      "stateMutability": "nonpayable",
      "type": "constructor"
    },
    {
      "inputs": [
        {
          "internalType": "uint256",
          "name": "bountyId",
          "type": "uint256"
        }
      ],
      "name": "claimBounty",
      "outputs": [
        {
          "internalType": "uint256",
          "name": "",
          "type": "uint256"
        }
      ],
      "stateMutability": "nonpayable",
      "type": "function"
    },
    {
      "inputs": [
        {
          "components": [
            {
              "internalType": "address",
              "name": "claimModule",
              "type": "address"
            },
            {
              "internalType": "bytes",
              "name": "claimModuleInitData",
              "type": "bytes"
            },
            {
              "internalType": "address",
              "name": "reviewModule",
              "type": "address"
            },
            {
              "internalType": "bytes",
              "name": "reviewModuleInitData",
              "type": "bytes"
            },
            {
              "internalType": "string",
              "name": "contentUri",
              "type": "string"
            }
          ],
          "internalType": "struct DataTypes.CreateBountyData",
          "name": "vars",
          "type": "tuple"
        }
      ],
      "name": "createBounty",
      "outputs": [
        {
          "internalType": "uint256",
          "name": "",
          "type": "uint256"
        }
      ],
      "stateMutability": "nonpayable",
      "type": "function"
    },
    {
      "inputs": [
        {
          "internalType": "uint256",
          "name": "bountyId",
          "type": "uint256"
        }
      ],
      "name": "getBounty",
      "outputs": [
        {
          "components": [
            {
              "internalType": "address",
              "name": "claimNFT",
              "type": "address"
            },
            {
              "internalType": "address",
              "name": "claimModule",
              "type": "address"
            },
            {
              "internalType": "address",
              "name": "reviewNFT",
              "type": "address"
            },
            {
              "internalType": "address",
              "name": "reviewModule",
              "type": "address"
            },
            {
              "internalType": "string",
              "name": "contentUri",
              "type": "string"
            }
          ],
          "internalType": "struct DataTypes.Bounty",
          "name": "",
          "type": "tuple"
        }
      ],
      "stateMutability": "view",
      "type": "function"
    },
    {
      "inputs": [
        {
          "internalType": "uint256",
          "name": "bountyId",
          "type": "uint256"
        }
      ],
      "name": "getClaimModule",
      "outputs": [
        {
          "internalType": "address",
          "name": "",
          "type": "address"
        }
      ],
      "stateMutability": "view",
      "type": "function"
    },
    {
      "inputs": [
        {
          "internalType": "uint256",
          "name": "bountyId",
          "type": "uint256"
        }
      ],
      "name": "getClaimNFT",
      "outputs": [
        {
          "internalType": "address",
          "name": "",
          "type": "address"
        }
      ],
      "stateMutability": "view",
      "type": "function"
    },
    {
      "inputs": [
        {
          "internalType": "uint256",
          "name": "bountyId",
          "type": "uint256"
        }
      ],
      "name": "getContentURI",
      "outputs": [
        {
          "internalType": "string",
          "name": "",
          "type": "string"
        }
      ],
      "stateMutability": "view",
      "type": "function"
    },
    {
      "inputs": [],
      "name": "getNumBounties",
      "outputs": [
        {
          "internalType": "uint256",
          "name": "",
          "type": "uint256"
        }
      ],
      "stateMutability": "view",
      "type": "function"
    },
    {
      "inputs": [
        {
          "internalType": "uint256",
          "name": "bountyId",
          "type": "uint256"
        }
      ],
      "name": "getReviewModule",
      "outputs": [
        {
          "internalType": "address",
          "name": "",
          "type": "address"
        }
      ],
      "stateMutability": "view",
      "type": "function"
    },
    {
      "inputs": [
        {
          "internalType": "uint256",
          "name": "bountyId",
          "type": "uint256"
        }
      ],
      "name": "getReviewNFT",
      "outputs": [
        {
          "internalType": "address",
          "name": "",
          "type": "address"
        }
      ],
      "stateMutability": "view",
      "type": "function"
    }
  ],
  "bytecode": "0x608060405234801561001057600080fd5b50611150806100206000396000f3fe608060405234801561001057600080fd5b50600436106100935760003560e01c80635bab4c79116100665780635bab4c79146101465780637cc5357014610176578063b4cfc75a146101a6578063b7880fee146101d6578063ee8c4bbf1461020657610093565b80633278ba2f146100985780633a05bb3f146100b657806344021ad7146100e6578063536f0aa914610116575b600080fd5b6100a0610236565b6040516100ad9190610e31565b60405180910390f35b6100d060048036038101906100cb9190610a37565b610281565b6040516100dd9190610e31565b60405180910390f35b61010060048036038101906100fb9190610a78565b61039d565b60405161010d9190610e31565b60405180910390f35b610130600480360381019061012b9190610a78565b610436565b60405161013d9190610d1f565b60405180910390f35b610160600480360381019061015b9190610a78565b610476565b60405161016d9190610d1f565b60405180910390f35b610190600480360381019061018b9190610a78565b6104b6565b60405161019d9190610d86565b60405180910390f35b6101c060048036038101906101bb9190610a78565b61055e565b6040516101cd9190610d1f565b60405180910390f35b6101f060048036038101906101eb9190610a78565b61059e565b6040516101fd9190610d1f565b60405180910390f35b610220600480360381019061021b9190610a78565b6105de565b60405161022d9190610e0f565b60405180910390f35b60006102796040518060400160405280600d81526020017f626f756e7479436f756e746572000000000000000000000000000000000000008152506000546107f5565b600054905090565b60006103146040518060400160405280600f81526020017f6372656174696e6720626f756e747900000000000000000000000000000000008152508380608001906102cc9190610e91565b8080601f016020809104026020016040519081016040528093929190818152602001838380828437600081840152601f19601f82011690508083019250505050505050610891565b60008060008154600101919050819055905073__$1f7cbacb1f9f5d323b85b0487838426c8d$__63e0d0705533858460016040518563ffffffff1660e01b81526004016103649493929190610d3a565b60006040518083038186803b15801561037c57600080fd5b505af4158015610390573d6000803e3d6000fd5b5050505080915050919050565b600073__$1f7cbacb1f9f5d323b85b0487838426c8d$__636dcf634783333060016040518563ffffffff1660e01b81526004016103dd9493929190610e4c565b60206040518083038186803b1580156103f557600080fd5b505af4158015610409573d6000803e3d6000fd5b505050506040513d601f19601f8201168201806040525081019061042d9190610aa1565b50819050919050565b60006001600083815260200190815260200160002060020160009054906101000a900473ffffffffffffffffffffffffffffffffffffffff169050919050565b60006001600083815260200190815260200160002060030160009054906101000a900473ffffffffffffffffffffffffffffffffffffffff169050919050565b60606001600083815260200190815260200160002060040180546104d99061107a565b80601f01602080910402602001604051908101604052809291908181526020018280546105059061107a565b80156105525780601f1061052757610100808354040283529160200191610552565b820191906000526020600020905b81548152906001019060200180831161053557829003601f168201915b50505050509050919050565b60006001600083815260200190815260200160002060000160009054906101000a900473ffffffffffffffffffffffffffffffffffffffff169050919050565b60006001600083815260200190815260200160002060010160009054906101000a900473ffffffffffffffffffffffffffffffffffffffff169050919050565b6105e6610956565b600160008381526020019081526020016000206040518060a00160405290816000820160009054906101000a900473ffffffffffffffffffffffffffffffffffffffff1673ffffffffffffffffffffffffffffffffffffffff1673ffffffffffffffffffffffffffffffffffffffff1681526020016001820160009054906101000a900473ffffffffffffffffffffffffffffffffffffffff1673ffffffffffffffffffffffffffffffffffffffff1673ffffffffffffffffffffffffffffffffffffffff1681526020016002820160009054906101000a900473ffffffffffffffffffffffffffffffffffffffff1673ffffffffffffffffffffffffffffffffffffffff1673ffffffffffffffffffffffffffffffffffffffff1681526020016003820160009054906101000a900473ffffffffffffffffffffffffffffffffffffffff1673ffffffffffffffffffffffffffffffffffffffff1673ffffffffffffffffffffffffffffffffffffffff16815260200160048201805461076c9061107a565b80601f01602080910402602001604051908101604052809291908181526020018280546107989061107a565b80156107e55780601f106107ba576101008083540402835291602001916107e5565b820191906000526020600020905b8154815290600101906020018083116107c857829003601f168201915b5050505050815250509050919050565b61088d828260405160240161080b929190610ddf565b6040516020818303038152906040527f9710a9d0000000000000000000000000000000000000000000000000000000007bffffffffffffffffffffffffffffffffffffffffffffffffffffffff19166020820180517bffffffffffffffffffffffffffffffffffffffffffffffffffffffff838183161783525050505061092d565b5050565b61092982826040516024016108a7929190610da8565b6040516020818303038152906040527f4b5c4277000000000000000000000000000000000000000000000000000000007bffffffffffffffffffffffffffffffffffffffffffffffffffffffff19166020820180517bffffffffffffffffffffffffffffffffffffffffffffffffffffffff838183161783525050505061092d565b5050565b60008151905060006a636f6e736f6c652e6c6f679050602083016000808483855afa5050505050565b6040518060a00160405280600073ffffffffffffffffffffffffffffffffffffffff168152602001600073ffffffffffffffffffffffffffffffffffffffff168152602001600073ffffffffffffffffffffffffffffffffffffffff168152602001600073ffffffffffffffffffffffffffffffffffffffff168152602001606081525090565b6000813590506109ec816110ec565b92915050565b600060a08284031215610a0457600080fd5b81905092915050565b600081359050610a1c81611103565b92915050565b600081519050610a3181611103565b92915050565b600060208284031215610a4957600080fd5b600082013567ffffffffffffffff811115610a6357600080fd5b610a6f848285016109f2565b91505092915050565b600060208284031215610a8a57600080fd5b6000610a9884828501610a0d565b91505092915050565b600060208284031215610ab357600080fd5b6000610ac184828501610a22565b91505092915050565b610ad381610ffc565b82525050565b610ae281610ffc565b82525050565b610af181610ffc565b82525050565b610b0081610ffc565b82525050565b6000610b128385610ef3565b9350610b1f838584611038565b610b28836110db565b840190509392505050565b8082525050565b6000610b468385610f26565b9350610b53838584611038565b610b5c836110db565b840190509392505050565b6000610b7282610ee8565b610b7c8185610f04565b9350610b8c818560208601611047565b610b95816110db565b840191505092915050565b6000610bab82610ee8565b610bb58185610f15565b9350610bc5818560208601611047565b610bce816110db565b840191505092915050565b600060a083016000830151610bf16000860182610aca565b506020830151610c046020860182610aca565b506040830151610c176040860182610aca565b506060830151610c2a6060860182610aca565b5060808301518482036080860152610c428282610b67565b9150508091505092915050565b600060a08301610c626000840184610f37565b610c6f6000860182610af7565b50610c7d6020840184610f4e565b8583036020870152610c90838284610b06565b92505050610ca16040840184610f37565b610cae6040860182610af7565b50610cbc6060840184610f4e565b8583036060870152610ccf838284610b06565b92505050610ce06080840184610fa5565b8583036080870152610cf3838284610b3a565b925050508091505092915050565b610d0a8161102e565b82525050565b610d198161102e565b82525050565b6000602082019050610d346000830184610ad9565b92915050565b6000608082019050610d4f6000830187610ae8565b8181036020830152610d618186610c4f565b9050610d706040830185610d10565b610d7d6060830184610b33565b95945050505050565b60006020820190508181036000830152610da08184610ba0565b905092915050565b60006040820190508181036000830152610dc28185610ba0565b90508181036020830152610dd68184610ba0565b90509392505050565b60006040820190508181036000830152610df98185610ba0565b9050610e086020830184610d01565b9392505050565b60006020820190508181036000830152610e298184610bd9565b905092915050565b6000602082019050610e466000830184610d01565b92915050565b6000608082019050610e616000830187610d10565b610e6e6020830186610ae8565b610e7b6040830185610ae8565b610e886060830184610b33565b95945050505050565b60008083356001602003843603038112610eaa57600080fd5b80840192508235915067ffffffffffffffff821115610ec857600080fd5b602083019250600182023603831315610ee057600080fd5b509250929050565b600081519050919050565b600082825260208201905092915050565b600082825260208201905092915050565b600082825260208201905092915050565b600082825260208201905092915050565b6000610f4660208401846109dd565b905092915050565b60008083356001602003843603038112610f6757600080fd5b83810192508235915060208301925067ffffffffffffffff821115610f8b57600080fd5b600182023603841315610f9d57600080fd5b509250929050565b60008083356001602003843603038112610fbe57600080fd5b83810192508235915060208301925067ffffffffffffffff821115610fe257600080fd5b600182023603841315610ff457600080fd5b509250929050565b60006110078261100e565b9050919050565b600073ffffffffffffffffffffffffffffffffffffffff82169050919050565b6000819050919050565b82818337600083830152505050565b60005b8381101561106557808201518184015260208101905061104a565b83811115611074576000848401525b50505050565b6000600282049050600182168061109257607f821691505b602082108114156110a6576110a56110ac565b5b50919050565b7f4e487b7100000000000000000000000000000000000000000000000000000000600052602260045260246000fd5b6000601f19601f8301169050919050565b6110f581610ffc565b811461110057600080fd5b50565b61110c8161102e565b811461111757600080fd5b5056fea2646970667358221220b2cb26f34d90774a082842a1202df38ac2a785f8d7abaca46292eabc067846d064736f6c63430008040033",
  "linkReferences": {
    "contracts/libraries/PublishingLogic.sol": {
      "PublishingLogic": [
        {
          "length": 20,
          "start": 840
        },
        {
          "length": 20,
          "start": 961
        }
      ]
    }
  },
  "deployedLinkReferences": {
    "contracts/libraries/PublishingLogic.sol": {
      "PublishingLogic": [
        {
          "length": 20,
          "start": 808
        },
        {
          "length": 20,
          "start": 929
        }
      ]
    }
  }
}